:020000040800F2
:1000000000500020018E00081D8500081F85000893
:1000100021850008238500082585000800000000D0
:10002000000000000000000000000000278500081C
:1000300029850008000000002B8500082D85000898
:10004000498E0008498E0008498E0008498E000834
:10005000498E0008498E000839850008438500084C
:10006000498E00084D85000857850008498E000814
:10007000498E0008498E0008498E0008498E000804
:10008000498E0008498E0008A5850008498E0008A1
:10009000498E0008498E0008498E000861850008D5
:1000A000498E0008498E0008498E0008498E0008D4
:1000B00095850008498E0008498E0008498E000881
:1000C000498E0008498E0008498E0008498E0008B4
:1000D000498E0008498E0008498E0008498E0008A4
:1000E00077850008498E0008498E0008000000004E
:1000F0000000000000000000000000000000000000
:0C01000000000000000000005FF808F1A3
:1001100010B5054C237833B9044B13B10448AFF341
:1001200000800123237010BDF005002000000000B6
:10013000B4A0000808B5034B1BB103490348AFF353
:10014000008008BD00000000F4050020B4A00008F5
:10015000034613F8012B002AFBD1181A0138704707
:1001600081F0004102E000BF83F0004330B54FEA68
:1001700041044FEA430594EA050F08BF90EA020FD5
:100180001FBF54EA000C55EA020C7FEA645C7FEA68
:10019000655C00F0E2804FEA5454D4EB5555B8BF8B
:1001A0006D420CDD2C4480EA020281EA030382EAFC
:1001B000000083EA010180EA020281EA0303362D8E
:1001C00088BF30BD11F0004F4FEA01314FF4801C61
:1001D0004CEA113102D0404261EB410113F0004F73
:1001E0004FEA03334CEA133302D0524263EB43032A
:1001F00094EA050F00F0A780A4F10104D5F1200EC8
:100200000DDB02FA0EFC22FA05F2801841F1000122
:1002100003FA0EF2801843FA05F359410EE0A5F1F6
:1002200020050EF1200E012A03FA0EFC28BF4CF027
:10023000020C43FA05F3C01851EBE37101F00045DD
:1002400007D54FF0000EDCF1000C7EEB00006EEBEA
:100250000101B1F5801F1BD3B1F5001F0CD3490874
:100260005FEA30004FEA3C0C04F101044FEA4452CB
:1002700012F5800F80F09A80BCF1004F08BF5FEA52
:10028000500C50F1000041EB045141EA050130BD32
:100290005FEA4C0C404141EB010111F4801FA4F1D5
:1002A0000104E9D191F0000F04BF01460020B1FA2A
:1002B00081F308BF2033A3F10B03B3F120020CDA62
:1002C0000C3208DD02F1140CC2F10C0201FA0CF040
:1002D00021FA02F10CE002F11402D8BFC2F1200CA5
:1002E00001FA02F120FA0CFCDCBF41EA0C0190405B
:1002F000E41AA2BF01EB0451294330BD6FEA0404A4
:100300001F3C1CDA0C340EDC04F11404C4F120028E
:1003100020FA04F001FA02F340EA030021FA04F3A0
:1003200045EA030130BDC4F10C04C4F1200220FAF7
:1003300002F001FA04F340EA0300294630BD21FA35
:1003400004F0294630BD94F0000F83F4801306BFFB
:1003500081F480110134013D4EE77FEA645C18BFEF
:100360007FEA655C29D094EA050F08BF90EA020F86
:1003700005D054EA000C04BF1946104630BD91EA7E
:10038000030F1EBF0021002030BD5FEA545C05D181
:100390004000494128BF41F0004130BD14F58004C0
:1003A0003CBF01F5801130BD01F0004545F0FE4134
:1003B00041F470014FF0000030BD7FEA645C1ABF69
:1003C000194610467FEA655C1CBF0B46024650EAA0
:1003D000013406BF52EA033591EA030F41F40021CC
:1003E00030BD00BF90F0000F04BF0021704730B552
:1003F0004FF4806404F132044FF000054FF0000127
:1004000050E700BF90F0000F04BF0021704730B5E7
:100410004FF4806404F1320410F0004548BF4042BC
:100420004FF000013EE700BF42004FEAE2014FEA11
:1004300031014FEA02701FBF12F07F4393F07F4FEC
:1004400081F06051704792F0000F14BF93F07F4F1E
:10045000704730B54FF4607401F0004521F0004161
:1004600020E700BF50EA010208BF704730B54FF0E7
:1004700000050AE050EA010208BF704730B511F0EC
:10048000004502D5404261EB41014FF4806404F124
:1004900032045FEA915C3FF4DCAE4FF003025FEAA6
:1004A000DC0C18BF03325FEADC0C18BF033202EB2E
:1004B000DC02C2F1200300FA03FC20FA02F001FA88
:1004C00003FE40EA0E0021FA02F11444C1E600BF27
:1004D00070B54FF0FF0C4CF4E06C1CEA11541DBFDA
:1004E0001CEA135594EA0C0F95EA0C0F00F0DEF8A5
:1004F0002C4481EA030621EA4C5123EA4C5350EA8A
:10050000013518BF52EA033541F4801143F48013DA
:1005100038D0A0FB02CE4FF00005E1FB02E506F06B
:100520000042E0FB03E54FF00006E1FB03569CF0C0
:10053000000F18BF4EF0010EA4F1FF04B6F5007FC6
:1005400064F5407404D25FEA4E0E6D4146EB060638
:1005500042EAC62141EA55514FEAC52040EA5E50C1
:100560004FEACE2EB4F1FD0C88BFBCF5E06F1ED86B
:10057000BEF1004F08BF5FEA500E50F1000041EBA2
:10058000045170BD06F0004646EA010140EA02004F
:1005900081EA0301B4EB5C04C2BFD4EB0C0541EA71
:1005A000045170BD41F480114FF0000E013C00F386
:1005B000AB8014F1360FDEBF002001F0004170BDAA
:1005C000C4F10004203C35DA0C341BDC04F11404C3
:1005D000C4F1200500FA05F320FA04F001FA05F24F
:1005E00040EA020001F0004221F0004110EBD3701C
:1005F00021FA04F642EB06015EEA430E08BF20EA48
:10060000D37070BDC4F10C04C4F1200500FA04F3EA
:1006100020FA05F001FA04F240EA020001F000417C
:1006200010EBD37041F100015EEA430E08BF20EAEF
:10063000D37070BDC4F1200500FA05F24EEA020E37
:1006400020FA04F301FA05F243EA020321FA04F066
:1006500001F0004121FA04F220EA020000EBD3701D
:100660005EEA430E08BF20EAD37070BD94F0000F1D
:100670000FD101F00046400041EB010111F4801F51
:1006800008BF013CF7D041EA060195F0000F18BF02
:10069000704703F00046520043EB030313F4801F3E
:1006A00008BF013DF7D043EA0603704794EA0C0FF8
:1006B0000CEA135518BF95EA0C0F0CD050EA41060E
:1006C00018BF52EA4306D1D181EA030101F000418B
:1006D0004FF0000070BD50EA410606BF10461946B3
:1006E00052EA430619D094EA0C0F02D150EA0136BF
:1006F00013D195EA0C0F05D152EA03361CBF104600
:1007000019460AD181EA030101F0004141F0FE419E
:1007100041F470014FF0000070BD41F0FE4141F422
:10072000780170BD70B54FF0FF0C4CF4E06C1CEA22
:1007300011541DBF1CEA135594EA0C0F95EA0C0FD7
:1007400000F0A7F8A4EB050481EA030E52EA033592
:100750004FEA013100F088804FEA03334FF08055B3
:1007600045EA131343EA12634FEA022245EA1115E0
:1007700045EA10654FEA00260EF000419D4208BF91
:10078000964244F1FD0404F5407402D25B084FEA3E
:100790003202B61A65EB03055B084FEA32024FF4EA
:1007A00080104FF4002CB6EB020E75EB030E22BF47
:1007B000B61A754640EA0C005B084FEA3202B6EB07
:1007C000020E75EB030E22BFB61A754640EA5C00B6
:1007D0005B084FEA3202B6EB020E75EB030E22BF46
:1007E000B61A754640EA9C005B084FEA3202B6EB47
:1007F000020E75EB030E22BFB61A754640EADC0006
:1008000055EA060E18D04FEA051545EA16754FEA67
:1008100006164FEAC30343EA52734FEAC2025FEA85
:100820001C1CC0D111F4801F0BD141EA00014FF014
:1008300000004FF0004CB6E711F4801F04BF0143E5
:100840000020B4F1FD0C88BFBCF5E06F3FF6AFAE01
:10085000B5EB030C04BFB6EB020C5FEA500C50F191
:10086000000041EB045170BD0EF0004E4EEA113114
:1008700014EB5C04C2BFD4EB0C0541EA045170BD1B
:1008800041F480114FF0000E013C90E645EA060E5F
:100890008DE60CEA135594EA0C0F08BF95EA0C0F8D
:1008A0003FF43BAF94EA0C0F0AD150EA01347FF4D5
:1008B00034AF95EA0C0F7FF425AF104619462CE7AC
:1008C00095EA0C0F06D152EA03353FF4FDAE10460F
:1008D000194622E750EA410618BF52EA43067FF460
:1008E000C5AE50EA41047FF40DAF52EA43057FF4F0
:1008F000EBAE12E74FF0FF3C06E000BF4FF0010CFB
:1009000002E000BF4FF0010C4DF804CD4FEA410C5E
:100910007FEA6C5C4FEA430C18BF7FEA6C5C1BD02B
:1009200001B050EA410C0CBF52EA430C91EA030FAC
:1009300002BF90EA020F0020704710F1000F91EA09
:10094000030F58BF994208BF90422CBFD8176FEAD7
:10095000E37040F0010070474FEA410C7FEA6C5CA5
:1009600002D150EA013C07D14FEA430C7FEA6C5CAC
:10097000D6D152EA033CD3D05DF8040B704700BFD8
:100980008446104662468C461946634600E000BF26
:1009900001B5FFF7B7FF002848BF10F1000F01BDF8
:1009A0004DF808EDFFF7F4FF0CBF012000205DF8C3
:1009B00008FB00BF4DF808EDFFF7EAFF34BF012048
:1009C00000205DF808FB00BF4DF808EDFFF7E0FFE1
:1009D00094BF012000205DF808FB00BF4DF808ED32
:1009E000FFF7CEFF94BF012000205DF808FB00BF99
:1009F0004DF808EDFFF7C4FF34BF012000205DF87B
:100A000008FB00BF4FEA410C7FEA6C5C02D150EA60
:100A1000013C0AD14FEA430C7FEA6C5C02D152EAF6
:100A2000033C02D14FF0000070474FF001007047C7
:100A30004FEA410212F5001215D211D56FF4787306
:100A4000B3EB625212D94FEAC12343F0004343EAA9
:100A5000505311F0004F23FA02F018BF4042704784
:100A60004FF00000704750EA013005D111F000400E
:100A700008BF6FF0004070474FF00000704700BFA4
:100A80004FEA4102B2F1E04324BFB3F5001CDCF1B0
:100A9000FE5C0DD901F0004C4FEAC0024CEA5070E8
:100AA000B2F1004F40EB830008BF20F00100704717
:100AB00011F0804F21D113F13872BCBF01F000401A
:100AC000704741F480114FEA5252C2F11802C2F14C
:100AD000200C10FA0CF320FA02F018BF40F00100CD
:100AE0004FEAC1234FEAD32303FA0CFC40EA0C007F
:100AF00023FA02F34FEA4303CCE77FEA625307D1BC
:100B000050EA01331EBF4FF0FE4040F440007047F2
:100B100001F0004040F0FE4040F40000704700BF8C
:100B200080F0004002E000BF81F0004142001FBFA2
:100B30005FEA410392EA030F7FEA226C7FEA236CAB
:100B40006AD04FEA1262D2EB1363C1BFD2184140A0
:100B500048404140B8BF5B42192B88BF704710F036
:100B6000004F40F4000020F07F4018BF404211F0D9
:100B7000004F41F4000121F07F4118BF494292EA41
:100B8000030F3FD0A2F1010241FA03FC10EB0C006D
:100B9000C3F1200301FA03F100F0004302D54942FA
:100BA00060EB4000B0F5000F13D3B0F1807F06D3A7
:100BB00040084FEA310102F10102FE2A51D2B1F19F
:100BC000004F40EBC25008BF20F0010040EA030094
:100BD0007047490040EB000010F4000FA2F1010241
:100BE000EDD1B0FA80FCACF1080CB2EB0C0200FACB
:100BF0000CF0AABF00EBC25052421843BCBFD04019
:100C00001843704792F0000F81F4000106BF80F492
:100C100000000132013BB5E74FEA41037FEA226C55
:100C200018BF7FEA236C21D092EA030F04D092F020
:100C3000000F08BF0846704790EA010F1CBF002054
:100C4000704712F07F4F04D1400028BF40F00040B1
:100C5000704712F100723CBF00F50000704700F0D1
:100C6000004343F0FE4040F4000070477FEA2262F8
:100C700016BF08467FEA23630146420206BF5FEAC9
:100C8000412390EA010F40F4800070474FF00003C9
:100C900004E000BF10F0004348BF40425FEA000C90
:100CA00008BF704743F0964301464FF000001CE038
:100CB00050EA010208BF70474FF000030AE000BF8E
:100CC00050EA010208BF704711F0004302D54042CC
:100CD00061EB41015FEA010C02BF8446014600203E
:100CE00043F0B64308BFA3F18053A3F50003BCFA59
:100CF0008CF2083AA3EBC25310DB01FA02FC634406
:100D000000FA02FCC2F12002BCF1004F20FA02F20C
:100D100043EB020008BF20F00100704702F12002FF
:100D200001FA02FCC2F1200250EA4C0021FA02F260
:100D300043EB020008BF20EADC7070474FF0FF0C65
:100D40001CEAD0521EBF1CEAD15392EA0C0F93EA60
:100D50000C0F6FD01A4480EA010C400218BF5FEA02
:100D600041211ED04FF0006343EA501043EA511175
:100D7000A0FB01310CF00040B1F5000F3EBF49006F
:100D800041EAD3715B0040EA010062F17F02FD2A73
:100D90001DD8B3F1004F40EBC25008BF20F0010056
:100DA000704790F0000F0CF0004C08BF49024CEA6D
:100DB000502040EA51207F3AC2BFD2F1FF0340EAFF
:100DC000C250704740F400004FF00003013A5DDC70
:100DD00012F1190FDCBF00F000407047C2F10002B1
:100DE000410021FA02F1C2F1200200FA02FC5FEA9E
:100DF000310040F1000053EA4C0308BF20EADC70E8
:100E0000704792F0000F00F0004C02BF400010F459
:100E1000000F013AF9D040EA0C0093F0000F01F006
:100E2000004C02BF490011F4000F013BF9D041EA28
:100E30000C018FE70CEAD15392EA0C0F18BF93EA2A
:100E40000C0F0AD030F0004C18BF31F0004CD8D154
:100E500080EA010000F00040704790F0000F17BFDB
:100E600090F0004F084691F0000F91F0004F14D021
:100E700092EA0C0F01D142020FD193EA0C0F03D179
:100E80004B0218BF084608D180EA010000F000407C
:100E900040F0FE4040F40000704740F0FE4040F457
:100EA000400070474FF0FF0C1CEAD0521EBF1CEAF6
:100EB000D15392EA0C0F93EA0C0F69D0A2EB030214
:100EC00080EA010C49024FEA402037D04FF08053AE
:100ED00043EA111143EA10130CF000408B4238BF73
:100EE0005B0042F17D024FF4000C8B4224BF5B1A81
:100EF00040EA0C00B3EB510F24BFA3EB510340EACF
:100F00005C00B3EB910F24BFA3EB910340EA9C007C
:100F1000B3EBD10F24BFA3EBD10340EADC001B01EC
:100F200018BF5FEA1C1CE0D1FD2A3FF650AF8B4290
:100F300040EBC25008BF20F0010070470CF0004C9D
:100F40004CEA50207F32C2BFD2F1FF0340EAC250C8
:100F5000704740F400004FF00003013A37E792F089
:100F6000000F00F0004C02BF400010F4000F013AE7
:100F7000F9D040EA0C0093F0000F01F0004C02BFE2
:100F8000490011F4000F013BF9D041EA0C0195E74B
:100F90000CEAD15392EA0C0F08D142027FF47DAFE4
:100FA00093EA0C0F7FF470AF084676E793EA0C0FD4
:100FB00004D14B023FF44CAF08466EE730F0004CD2
:100FC00018BF31F0004CCAD130F000427FF45CAF62
:100FD00031F000437FF43CAF5FE700BF4FF0FF3CD0
:100FE00006E000BF4FF0010C02E000BF4FF0010C23
:100FF0004DF804CD4FEA40024FEA41037FEA226CEC
:1010000018BF7FEA236C11D001B052EA530C18BF0D
:1010100090EA010F58BFB2EB030088BFC81738BF72
:101020006FEAE17018BF40F0010070477FEA226C60
:1010300002D15FEA402C05D17FEA236CE4D15FEA5C
:10104000412CE1D05DF8040B704700BF8446084690
:101050006146FFE70FB5FFF7C9FF002848BF10F151
:10106000000F0FBD4DF808EDFFF7F4FF0CBF012096
:1010700000205DF808FB00BF4DF808EDFFF7EAFF20
:1010800034BF012000205DF808FB00BF4DF808EDDB
:10109000FFF7E0FF94BF012000205DF808FB00BFD0
:1010A0004DF808EDFFF7D2FF94BF012000205DF856
:1010B00008FB00BF4DF808EDFFF7C8FF34BF012063
:1010C00000205DF808FB00BF4FEA4002B2F1FE4F7E
:1010D0000FD34FF09E03B3EB12620DD94FEA0023FA
:1010E00043F0004310F0004F23FA02F018BF4042D3
:1010F00070474FF00000704712F1610F01D14202BA
:1011000005D110F0004008BF6FF0004070474FF06D
:10111000000070477BB972B90029BEBF00204FF0B4
:10112000004106E008BF00281CBF6FF000414FF0EF
:10113000FF3000F0ADB9ADF1080C6DE904CE002927
:1011400009DB002B1ADB00F035F8DDF804E0DDE9FF
:10115000022304B07047404261EB4101002B1BDBCE
:1011600000F028F8DDF804E0DDE9022304B0404295
:1011700061EB4101524263EB43037047524263EB20
:10118000430300F017F8DDF804E0DDE9022304B0C2
:10119000404261EB41017047524263EB430300F070
:1011A00009F8DDF804E0DDE9022304B0524263EB04
:1011B000430370472DE9F0478C460E460446089DD0
:1011C000002B50D18A4217466CD9B2FA82FEBEF18A
:1011D000000F0BD0CEF1200C01FA0EF620FA0CFC19
:1011E00002FA0EF74CEA060C00FA0EF43A0CBCFBBD
:1011F000F2F9BBB202FB19CC09FB03FA4FEA14481F
:1012000048EA0C46B2450AD9F61909F1FF3180F0D7
:101210002581B24540F22281A9F102093E44A6EBA4
:101220000A06B6FBF2F002FB106600FB03F3A4B261
:1012300044EA0644A34209D9E41900F1FF3280F0E0
:101240000B81A34240F2088102383C440021E41A99
:1012500040EA0940002D62D0002324FA0EF42C60ED
:101260006B60BDE8F0878B4207D9002D55D0002177
:1012700085E841000846BDE8F087B3FA83F100290C
:1012800040F08F80B34202D3824200F2FC80841A85
:1012900066EB03060120B446002D40D085E810100F
:1012A000BDE8F08712B90127B7FBF2F7B7FA87FE5E
:1012B000BEF1000F35D10121F61B4FEA174C1FFA82
:1012C00087F8B6FBFCF20CFB126608FB02F0230C5D
:1012D00043EA0646B04207D9F61902F1FF3302D2BB
:1012E000B04200F2D2801A46361AB6FBFCF00CFB74
:1012F000106608FB00F8A3B243EA0644A04507D9EC
:10130000E41900F1FF3302D2A04500F2B98018467B
:10131000A4EB080440EA02409CE729462846BDE8C1
:10132000F08707FA0EF7CEF1200326FA03F24FEA10
:10133000174CB2FBFCF11FFA87F80CFB112206FADE
:101340000EF620FA03F301FB08F933431E0C46EABC
:101350000246B14500FA0EF409D9F61901F1FF323F
:1013600080F08C80B14540F2898002393E44A6EB82
:101370000906B6FBFCF00CFB106200FB08F99EB2FC
:1013800046EA0246B14507D9F61900F1FF3371D29A
:10139000B1456FD902383E44A6EB090640EA014147
:1013A0008FE7C1F1200722FA07F88B4048EA0303D0
:1013B00026FA07F44FEA134EB4FBFEF91FFA83FC3A
:1013C0000EFB19448E4020FA07F809FB0CFA48EA94
:1013D00006084FEA184646EA0444A24502FA01F21A
:1013E00000FA01F608D9E41809F1FF3044D2A24509
:1013F00042D9A9F102091C44A4EB0A04B4FBFEF093
:101400000EFB104400FB0CFC1FFA88F848EA044469
:10141000A44507D9E41800F1FF3E29D2A44527D9F5
:1014200002381C4440EA0940A0FB0289A4EB0C0CE2
:10143000CC45C246CE4615D312D055B1B6EB0A0301
:101440006CEB0E0606FA07F7CB401F43CE402F6029
:101450006E600021BDE8F0871046F7E68946DEE6BB
:101460004645EAD2B8EB020A69EB030E0138E4E71D
:101470007046D7E718468FE78146BDE7114676E705
:1014800002383C4444E7084606E7023A3E442BE76C
:10149000704700BF10B50446074B1868074BA3FB05
:1014A0000030800900F0CAFB002221464FF0FF30D7
:1014B00000F07AFB002010BDE0000020D34D621048
:1014C00008B5074A136843F010031360032000F0C7
:1014D00059FB0020FFF7DEFF06F0C0FE002008BD2C
:1014E00000200240024A136801331360704700BFB6
:1014F000543D0020014B1868704700BF543D002048
:1015000030B583B00190FFF7F5FF0546019CB4F1BB
:10151000FF3F18BF0134FFF7EDFF401BA042FAD395
:1015200003B030BD0368D86C7047704710B50446EF
:1015300003685A6812F0200F18D01A6812F0020FD0
:1015400014D0826A12F0100F03D1826A42F4007242
:1015500082629A6802F46022B2F5602F38D0204689
:10156000FFF7E3FF23686FF012021A6023685A68DE
:1015700012F0800F22D01A6812F0040F1ED0A26A57
:1015800012F0100F03D1A26A42F40052A2629A68CC
:1015900002F4E042B2F5E04F31D05A6812F4806FA5
:1015A00005D19A6802F46022B2F5602F24D020465B
:1015B00000F0E6FA23686FF00C021A6023685A689C
:1015C00012F0400F03D01B6813F0010F28D110BD9B
:1015D000E268002AC3D15A6822F020025A60A36A46
:1015E00023F48073A362A36A13F4805FB7D1A36A64
:1015F00043F00103A362B2E7E268002AD7D15A6838
:1016000022F080025A60A36A23F48053A362A36A83
:1016100013F4807FCBD1A36A43F00103A362C6E732
:10162000A36A43F48033A362204603F091FD23684C
:101630006FF001021A60CAE730B482B00023019350
:1016400090F82430012B00F08F800246012380F8AF
:1016500024304B68062B29D80568686B03EB83039D
:10166000053B1F249C4020EA04000C6804FA03F3A5
:1016700003436B630B68092B38D91568E86803EBE3
:1016800043031E3B07249C4020EA04008C6804FAB4
:1016900003F30343EB600B68103B012B34D90020AC
:1016A000002382F8243002B030BC70470C2B0ED8D7
:1016B0000568286B03EB8303233B1F249C4020EA2F
:1016C00004000C6804FA03F303432B63D2E70568B4
:1016D000E86A03EB8303413B1F249C4020EA04009B
:1016E0000C6804FA03F30343EB62C3E71568286947
:1016F00003EB430307249C4020EA04008C6804FAAF
:1017000003F303432B61C6E71068184B984205D0DA
:10171000936A43F0200393620120C1E79B6813F4AE
:10172000000F1DD11148836843F4000383600B68E8
:10173000102B01D00020B3E70D4B1B680D49A1FB16
:1017400003139B0C03EB83035B000193019B4BB1E1
:10175000019B013B0193019B002BF9D100209FE7E6
:1017600000209DE700209BE702209CE70024014029
:10177000E000002083DE1B4390F82430012B22D0B0
:1017800030B4012380F824308B68012B0268536841
:101790000CBF43F0400323F04003536004686568C6
:1017A0000B684A681343094A2A401343636003687D
:1017B000CA685A6203680A699A62002380F8243072
:1017C000184630BC70470220704700BFE0FD3FFF65
:1017D00030B583B00023019303689A6812F0010FBB
:1017E0002FD19A6842F001029A60174B1B68174A82
:1017F000A2FB03239B0C0193019B2BB1019B013B9B
:101800000193019B002BF9D10446FFF773FE0546B7
:1018100023689B6813F0010F11D1FFF76BFE401B8B
:101820000228F5D9A36A43F01003A362E36A43F0E8
:101830000103E362002384F82430012002E0002049
:1018400000E0002003B030BDE000002083DE1B4339
:1018500090F82430012B02D102231846704710B5AE
:101860000446012380F82430FFF7B2FF0346002826
:1018700059D1A26A22F4407222F0010242F480722D
:10188000A26222682A498A4228D0A16A21F48011E2
:10189000A162516811F4806F05D0A16A21F4405112
:1018A00041F48051A162A16A11F4805F1ABFE16A1C
:1018B00021F006010021E162002184F824106FF07C
:1018C000020111602268916801F46021B1F5602F76
:1018D0001AD0916841F48011916027E0A1F58061F0
:1018E000496811F4702FD0D0A16A41F48011A1622F
:1018F0001049496811F4806FD5D0A16A21F4405194
:1019000041F48051A162CEE709498A4204D091682E
:1019100041F4A001916009E0A1F58061496811F4EA
:10192000702FD6D1F3E7002284F82420184610BD8A
:10193000002801400024014038B503689A6812F07D
:10194000010F01D1002038BD04469A6822F001023F
:101950009A60FFF7CFFD054623689B6813F0010FDF
:101960000ED0FFF7C7FD401B0228F5D9A36A43F04C
:101970001003A362E36A43F00103E362012038BD70
:10198000002038BD00287ED038B50446836A002B7D
:101990004CD02046FFF7D0FFA36A13F010036CD1A0
:1019A00000286AD1A26A22F4885222F0020242F090
:1019B0000202A262E5686268E1690A4342EA4502FE
:1019C000A168B1F5807F37D0012908BF4FF480733B
:1019D0006169012933D02568696821F469410B43A5
:1019E0006B6021688D68294B2B4013438B60A36883
:1019F000B3F5807F34D0012B32D000212568EB6A0B
:101A000023F470030B43EB6223689968204B0B406F
:101A10009A4229D0A36A23F0120343F01003A36271
:101A2000E36A43F00103E362012038BDC36280F83A
:101A3000243006F05DFCACE74FF48073C8E735B99D
:101A4000A169013943EA413343F40063C3E7A16A62
:101A500041F02001A162E16A41F00101E162BAE7CF
:101A60002369013B1905C9E70023E362A36A23F058
:101A7000030343F00103A36238BDA36A43F01003DC
:101A8000A362012038BD0120704700BFFDF7E1FFD0
:101A9000FE0E1FFF70B582B00023019390F8243032
:101AA000012B03D10225284602B070BD0446012354
:101AB00080F82430FFF740FF054618B1002384F872
:101AC0002430F0E7A36A23F4885323F0020343F0A1
:101AD0000203A362294B1E68022000F06FFFB6FBD1
:101AE000F0F040000190019B2BB1019B013B019361
:101AF000019B002BF9D12046FFF76AFE226893680C
:101B000043F008039360FFF7F5FC064623689A68E4
:101B100012F0080F0FD0FFF7EDFC801B0A28F5D953
:101B2000A36A23F0120343F01003A362002384F896
:101B300024300125B7E79A6842F004029A60FFF763
:101B4000D9FC064623689B6813F0040F0FD0FFF7FB
:101B5000D1FC801B0A28F5D9A36A23F0120343F0B5
:101B60001003A362002384F8243001259BE7A36AB5
:101B700023F0030343F00103A3629FE7E00000208A
:101B800070470000074AD36823F4E0631B041B0C72
:101B900043F0BF6343F40033000200F4E06003430A
:101BA000D360704700ED00E030B4154BDC68C4F33F
:101BB0000224C4F10703042B28BF0423251D062D8E
:101BC0008CBFE51E0025012404FA03F3013B1940F4
:101BD000A940AC40013C22401143002809DB090127
:101BE000C9B200F1604000F5614080F8001330BCDC
:101BF000704700F00F000901C9B2024B1954F6E713
:101C000000ED00E014ED00E0420900F01F000123A8
:101C100003FA00F0014B43F82200704700E100E0B6
:101C2000430900F01F00012202FA00F02033024AAB
:101C300042F82300704700BF00E100E00138B0F136
:101C4000807F0AD2064B5860F021064A82F82310A2
:101C50000020986007221A6070470120704700BF7B
:101C600010E000E000ED00E00428044A13680CBF17
:101C700043F0040323F004031360704710E000E016
:101C8000704708B5FFF7FCFF08BD0000154BDB6887
:101C900013F0100F23D0144AD36943F00203D36129
:101CA0001023104AD26812F0040F06D00E49CA69F8
:101CB00042F00102CA6143F004030A4AD26912F0F9
:101CC000010F09D00849CA6942F00402CA610549F6
:101CD000CA6922F00102CA61024AD3607047002338
:101CE000DFE700BF00200240583D0020074B1B6982
:101CF00013F0800F07D0054B054A5A6002F1883275
:101D00005A60002070470120704700BF0020024049
:101D100023016745034A136943F0800313610020E0
:101D2000704700BF0020024070B50446FFF7E2FB99
:101D30000646174DEB6813F0010F0AD0B4F1FF3FD0
:101D4000F8D00CB3FFF7D6FB801B8442F2D20320FD
:101D500070BD0F4BDB6813F0200F02D020220C4B1C
:101D6000DA600B4BDB6813F0100F09D1084BDB690D
:101D700013F0010F04D1064BDB6813F0040F05D0FC
:101D8000FFF784FF012070BD032070BD002070BDEF
:101D9000002002402DE9F84F264C247E012C03D16F
:101DA00002231846BDE8F88F1F4690460D460446AC
:101DB0000122204B1A764CF25030FFF7B5FF034654
:101DC00080BB012C32D0022C0CBF4FF0020B4FF025
:101DD000040B0026DFF85CA0B146174C3301C3F1B9
:101DE0002001A3F1200228FA03F307FA01F10B43C3
:101DF00027FA02F213439BB2CAF81C90226942F000
:101E0000010222612B804CF25030FFF78DFF2369D5
:101E100023F001032361034620B901360235F2B2F3
:101E20009345DBD80021034A1176BAE74FF0010B46
:101E3000CFE700BF583D0020002002400022064BA3
:101E4000DA61064B1A6942F002021A6158611A6996
:101E500042F040021A617047583D002000200240C5
:101E60002F4B1B7E012B58D02DE9F0410F46054624
:101E700001222B4B1A760368022B26D04CF25030ED
:101E8000FFF752FF00283FD14FF0FF333B60AC68B3
:101E9000EB6804EB83239C423DD24CF25038214E38
:101EA0002046FFF7CBFF4046FFF73EFF336923F0A4
:101EB00002033361014628BB04F58064EA68AB681D
:101EC00003EB8223A342EBD81FE04CF25030FFF724
:101ED0002BFF08B1012118E00022114BDA61114CEF
:101EE000236943F004032361236943F04003236122
:101EF0004CF25030FFF718FF0146236923F004032A
:101F0000236102E03C6000E001210022044B1A76CC
:101F10000846BDE8F0810121F7E702210846704735
:101F2000583D0020002002402DE9F04F85B06FF0B1
:101F30001F0400263246DFF8D0E1DFF8D0C16E4D35
:101F4000DFF8CC810196A2E0B9F1000F1DD0B9F104
:101F5000010F27D1CE68019624E0684EB14514D018
:101F60000BD9674EB14510D006F58036B1450CD07F
:101F7000DFF8A0A1D14515D107E0DFF89CA1D1453C
:101F800003D00AF5803AD1450CD18E68002E00F0BE
:101F9000A480012E0CBF076147610826019601E06D
:101FA00000260196FF2B99BF8146076800F10409BE
:101FB0004768FF2B94BF4FEA820AA2464FF00F0BEF
:101FC0000BFA0AFB27EA0B07019E06FA0AFA47EA10
:101FD0000A07C9F800704F6817F0805F53D0DEF829
:101FE000187047F00107CEF81870DEF8187007F087
:101FF00001070397039F22F0030707F1804707F5C6
:102000008037D7F808A002F003094FEA890B4FF098
:102010000F0909FA0BF92AEA090A604560D0404520
:1020200061D0384EB04261D006F58066B0420CBF38
:102030004FF003094FF0040909FA0BF949EA0A09BC
:10204000C7F808904F6817F4803F2F6814BF1F43EC
:102050009F432F604F6817F4003F6F6814BF1F4302
:102060009F436F604F6817F4801FAF6814BF1F4312
:102070009F43AF604F6817F4001FEF6814BF3B43E6
:1020800027EA0303EB6001320434102A31D0012720
:1020900097400B683B409F42F5D1D1F80490B9F1CD
:1020A000120F16D03FF659AFB9F1020F0DD07FF6DF
:1020B0004BAFB9F1030F3FF473AFB9F1110F7FF4D8
:1020C00071AFCE68043601966CE7CE68083601968B
:1020D00068E7CE680C36019664E70426019661E74E
:1020E0004FF00009A8E74FF00109A5E74FF00209FA
:1020F000A2E705B0BDE8F08F000401400000211008
:1021000000003110001001400010024000080140A2
:10211000000C0140000022100000111083681942D9
:1021200014BF01200020704712B9090401617047F3
:102130000161704708B5054B5B69034200D108BDDA
:10214000024B586105F05EF8F9E700BF000401405A
:10215000002872D038B5044690F83D30002B41D0AD
:10216000242384F83D302268136823F001031360B0
:1021700000F074FB324BA3FB00239B0C22685360DE
:10218000216865682F4A954231D801330B62226875
:1021900063682C498B4234D85B00B0FBF3F0C0F38A
:1021A0000B03032B98BF0420D0612268E369216AE6
:1021B0000B43136022682369E1680B439360226834
:1021C0006369A1690B43D3602268136843F001037C
:1021D000136000202064202384F83D30206384F8BD
:1021E0003E0038BD80F83C3006F0BCF8B8E74FF44C
:1021F000967202FB03F3144AA2FB03239B090133EB
:10220000C4E7A16849B903EB4303B0FBF3F0C0F3A3
:102210000B0373B140F40040C6E703EB830303EB09
:102220008303B0FBF3F0C0F30B0323B140F4404051
:10223000BAE70120B8E70120B6E70120704700BFE8
:1022400083DE1B43A0860100D34D62102DE9F041CF
:1022500082B00446036813F0010F3DD0AB4B5B68BE
:1022600003F00C03042B2ED0A84B5B6803F00C0387
:10227000082B23D06368B3F5803F51D0002B55D194
:1022800003F1804303F504331A6822F480321A60A4
:102290001A6822F480221A606368002B60D0FFF76E
:1022A00029F90646994D2B6813F4003F14D1FFF726
:1022B00021F9801B6428F6D90320BFE1934B5B68AA
:1022C00013F4803FD6D0914B1B6813F4003F03D02A
:1022D0006368002B00F0AF81236813F0020F65D014
:1022E0008A4B5B6813F00C0F4ED0884B5B6803F091
:1022F0000C03082B43D02369002B79D00122844B97
:102300001A60FFF7F7F80646804D2B6813F0020FAE
:1023100065D1FFF7EFF8801B0228F6D903208DE185
:102320007A4A136843F480331360B5E7B3F5A02FFE
:1023300009D0764B1A6822F480321A601A6822F4A7
:1023400080221A60A8E703F18043A3F53C331A68A2
:1023500042F480221A601A6842F480321A609BE7C5
:10236000FFF7C8F80646694D2B6813F4003FB3D059
:10237000FFF7C0F8801B6428F6D903205EE1634BA9
:102380005B6813F4803FB6D1604B1B6813F0020FFB
:1023900004D02369012B01D001204FE15B4A13686F
:1023A000616923F0F80343EAC1031360236813F063
:1023B000080F3CD0A369002B79D00122554B1A603D
:1023C000FFF798F80646514D6B6A13F0020F21D1C2
:1023D000FFF790F8801B0228F6D903202EE14B4A24
:1023E0001368616923F0F80343EAC1031360DDE772
:1023F0000022474B1A60FFF77DF80646434D2B68D5
:1024000013F0020FD2D0FFF775F8801B0228F6D91F
:10241000032013E1404B1B68404AA2FB03235B0AE5
:10242000019300BF019B5A1E0192002BF9D1236832
:1024300013F0040F00F09F80344BDB6913F0805FD2
:1024400047D1324BDA6942F08052DA61DB6903F03E
:1024500080530093009B0125314B1B6813F4807F50
:1024600039D0E368012B4AD0002B5BD103F18043C4
:1024700003F504331A6A22F001021A621A6A22F082
:1024800004021A62E368002B62D0FFF733F880463B
:102490001E4E41F28837336A13F0020F6AD1FFF7FC
:1024A00029F8A0EB0800B842F5D90320C6E00022C5
:1024B000184B1A60FFF71EF80646144D6B6A13F0AE
:1024C000020FB4D0FFF716F8801B0228F6D90320BC
:1024D000B4E00025C0E7124A136843F48073136028
:1024E000FFF708F807460E4E336813F4807FB8D123
:1024F000FFF700F8C01B6428F6D903209EE0034ACA
:10250000136A43F001031362BCE700BF00100240EE
:102510000000424280044242E0000020D34D62109D
:1025200000700040052B09D0474B1A6A22F00102C7
:102530001A621A6A22F004021A62A3E7424B1A6A6C
:1025400042F004021A621A6A42F001021A6299E722
:10255000FEF7D0FF80463C4E41F28837336A13F0D5
:10256000020F07D0FEF7C6FFA0EB0800B842F5D96E
:10257000032063E0E5B9E369002B5ED0324A52687C
:1025800002F00C02082A5CD0022B17D000222F4B3D
:102590001A60FEF7AFFF05462B4C236813F0007F4F
:1025A00047D0FEF7A7FF401B0228F6D9032045E0DD
:1025B000254AD36923F08053D361DCE70022234B03
:1025C0001A60FEF797FF06461F4D2B6813F0007F39
:1025D00006D0FEF78FFF801B0228F6D903202DE0DE
:1025E000236AB3F5803F1AD017494A68236A606AA4
:1025F000034322F4741213434B600122134B1A60FD
:10260000FEF778FF0546104C236813F0007F0ED1CB
:10261000FEF770FF401B0228F6D903200EE00A4A9D
:10262000536823F40033A1680B435360DCE70020B8
:1026300004E0002002E0012000E0002002B0BDE83C
:10264000F0810120FAE700BF001002406000424222
:1026500000B587B0174B0FCB0DF1180E0EE90F0028
:1026600001238DF8043002238DF80530124B5B688E
:1026700003F00C02082A18D1C3F38342724412F803
:10268000100C13F4803F03D10C4B03FB00F00DE062
:10269000094B5B68C3F34043734413F8142C084B95
:1026A000B3FBF2F300FB03F000E0054807B05DF870
:1026B00004FB00BFCCA000080010024000093D0050
:1026C00000127A005E4B1B6803F007038B420CD2AA
:1026D0005B4A136823F007030B431360136803F08E
:1026E0000703994201D0012070472DE9F0410368AA
:1026F00013F0020F06D0534A536823F0F0038468A6
:10270000234353600C460546036813F0010F57D06E
:102710004268012A24D0022A2AD04A4B1B6813F0AF
:10272000020F00F0898047494B6823F003031343ED
:102730004B60FEF7DFFE06466B68012B20D0022BB4
:102740002ED0404F41F288387B6813F00C0F37D001
:10275000FEF7D0FE801B4045F6D90320BDE8F0818E
:10276000384B1B6813F4003FDDD10120BDE8F08138
:10277000344B1B6813F0007FD5D10120BDE8F081F8
:10278000304F41F288387B6803F00C03042B17D0DC
:10279000FEF7B0FE801B4045F5D90320BDE8F0816F
:1027A000284F41F288387B6803F00C03082B07D0D0
:1027B000FEF7A0FE801B4045F5D90320BDE8F0815F
:1027C0001F4B1B6803F007039C420DD21C4A136881
:1027D00023F0070323431360136803F007039C42AD
:1027E00002D00120BDE8F0812B6813F0040F06D061
:1027F000144A536823F4E063E9680B4353602B6881
:1028000013F0080F07D00F4A5368296923F4605367
:1028100043EAC1035360FFF71BFF0A4B5B68C3F336
:102820000313094AD35CD840084B18600020FEF718
:1028300031FE0020BDE8F0810120BDE8F08100BF3D
:10284000002002400010024030BF0008E0000020DD
:10285000014B1868704700BFE0000020044B5B6824
:10286000C3F30223034AD35C034A1068D84070477D
:102870000010024040BF0008E0000020044B5B68ED
:10288000C3F3C223034AD35C034A1068D84070479D
:102890000010024040BF0008E00000202DE9F04198
:1028A00082B00446036813F0010F34D0404BDB695B
:1028B00013F0805F49D13E4BDA6942F08052DA6111
:1028C000DB6903F080530193019B0125394B1B68A1
:1028D00013F4807F3BD0364B1B6A13F4407311D046
:1028E000626802F4407293420CD0314A136A23F4B6
:1028F0004070314901260E6000260E60106213F010
:10290000010F38D12A4A136A23F4407361680B43DC
:102910001362002D44D1236813F0020F06D0244A1D
:10292000536823F44043A1680B435360236813F0BA
:10293000100F3AD01E4A536823F48003E1680B431A
:102940005360002002B0BDE8F0810025BEE7194ABF
:10295000136843F480731360FEF7CCFD0746154EF1
:10296000336813F4807FB6D1FEF7C4FDC01B642822
:10297000F6D90320E6E7FEF7BDFD804606F1804666
:1029800006F5043641F28837336A13F0020FB9D1E5
:10299000FEF7B0FDA0EB0800B842F5D90320D1E75F
:1029A000D36923F08053D361B5E70020CAE700BFA5
:1029B00000100240007000404004424210B586B052
:1029C00004463A4B0FCB0DF1180E0EE90F00012310
:1029D0008DF8043002238DF805309C4255D0102C20
:1029E00003D0012C2BD0002059E0314B5A681B68D2
:1029F00013F0807F55D0C2F3834306A90B4413F82C
:102A0000100C12F4803F16D0294B5B68C3F340438F
:102A10000B4413F8142C274BB3FBF2F300FB03F029
:102A2000234B5B6813F4800F39D14000224BA3FB8A
:102A30000030400833E0214B03FB00F0F0E71C4B73
:102A40001B6A40F202321A40B2F5817F2BD003F4A8
:102A50004073B3F5007F04D0B3F5407F0BD0002066
:102A60001DE0134B5B6A03F00203002B49F6404064
:102A700008BF002013E00E4B1B6803F40033002B4B
:102A80004FF2244008BF002009E0FFF7F7FE084B93
:102A90005B68C3F3813301335B00B0FBF3F006B036
:102AA00010BD0020FBE74FF40040F8E7DCA0000871
:102AB0000010024000127A00ABAAAAAA00093D0049
:102AC00070B4036A23F001030362036A44688269F5
:102AD00022F073020D682A4323F002038D682B4312
:102AE0000B4DA84206D0446082614A68426303628B
:102AF00070BC704723F00803CD682B4323F0040318
:102B000024F440744D698E6935432C43EBE700BFD4
:102B1000002C014070B4036A23F480730362036ADB
:102B20004468C26922F073020D682A4323F40073DB
:102B30008D6843EA05230C4DA84206D04460C2616B
:102B40004A68C263036270BC704723F40063CD68B7
:102B500043EA052323F4806324F440544D698E69CD
:102B6000354344EA0514E9E7002C014030B4036A18
:102B700023F480530362036A4468C26922F4E64284
:102B80000D6842EA052223F400538D6843EA0533B9
:102B9000074DA84206D04460C2614A6802640362DD
:102BA00030BC704724F480444D6944EA8514F2E750
:102BB000002C0140704770477047704710B50446BD
:102BC00003681A6912F0020F11D0DA6812F0020FCE
:102BD0000DD06FF002021A610123037703689B692D
:102BE00013F0030F70D0FFF7E6FF0023237723686D
:102BF0001A6912F0040F12D0DA6812F0040F0ED026
:102C00006FF004021A610223237723689B6913F48F
:102C1000407F5FD02046FFF7CEFF00232377236855
:102C20001A6912F0080F12D0DA6812F0080F0ED0ED
:102C30006FF008021A61042323772368DB6913F01D
:102C4000030F4ED02046FFF7B6FF002323772368FB
:102C50001A6912F0100F12D0DA6812F0100F0ED0AD
:102C60006FF010021A61082323772368DB6913F4DD
:102C7000407F3DD02046FFF79EFF00232377236847
:102C80001A6912F0010F03D0DA6812F0010F36D181
:102C900023681A6912F0800F03D0DA6812F0800FEF
:102CA00034D123681A6912F0400F03D0DA6812F0A9
:102CB000400F32D123681A6912F0200F03D0DA686E
:102CC00012F0200F30D110BD01F0D2FD2046FFF7E9
:102CD00073FF8AE7204601F0CBFD2046FFF76CFF2B
:102CE0009BE7204601F0C4FD2046FFF765FFACE7F7
:102CF000204601F0BDFD2046FFF75EFFBDE76FF007
:102D000001021A612046FFF755FFC1E76FF080020C
:102D10001A61204600F0DEF9C3E76FF040021A6145
:102D20002046FFF74AFFC5E76FF020021A612046F0
:102D300000F0CFF9C7E700000368204A904216D0A0
:102D4000B0F1804F2AD0A2F5943290422BD002F5F8
:102D5000806290422CD023F080034A6913430360C1
:102D60008B68C3620B68836201234361704723F061
:102D700070034A68134323F44073CA68134323F073
:102D800080034A69134303608B68C3620B688362E4
:102D90000A4B984204BF0A691A63E5E723F07003FF
:102DA0004A681343E7E723F070034A681343E2E7F6
:102DB00023F070034A681343DDE700BF002C014095
:102DC000A8B110B5044690F83D305BB1022384F8F9
:102DD0003D30211D2068FFF7AFFF012384F83D300F
:102DE000002010BD80F83C3005F032FBEEE70120FA
:102DF0007047A8B110B5044690F83D305BB102238E
:102E000084F83D30211D2068FFF796FF012384F8E8
:102E10003D30002010BD80F83C3005F0C9FAEEE7E7
:102E20000120704770B4036A23F010030362036A41
:102E30004468826922F4E6420D6842EA052223F0E2
:102E400020038D6843EA05130C4DA84206D0446068
:102E500082614A688263036270BC704723F080031A
:102E6000CD6843EA051323F0400324F440644D6920
:102E70008E69354344EA8504E9E700BF002C014030
:102E800090F83C30012B28D010B50446012380F87F
:102E90003C30022380F83D300C2A0BD8DFE802F0EA
:102EA000070A0A0A110A0A0A150A0A0A190000681A
:102EB000FFF706FE012384F83D30002084F83C0033
:102EC00010BD0068FFF7AEFFF4E70068FFF722FED1
:102ED000F0E70068FFF74AFEECE70220704738B5DC
:102EE00090F83C30012B66D00D460446012380F853
:102EF0003C30022380F83D300C2A1AD8DFE802F07B
:102F000007191919201919193419191947000068D6
:102F1000FFF7D6FD2268936943F0080393612268A6
:102F2000936923F0040393612268936929690B4331
:102F30009361012384F83D30002084F83C0038BDC3
:102F40000068FFF76FFF2268936943F400639361A1
:102F50002268936923F480639361226893692969E5
:102F600043EA01239361E4E70068FFF7D3FD226899
:102F7000D36943F00803D3612268D36923F00403C3
:102F8000D3612268D36929690B43D361D1E7006813
:102F9000FFF7ECFD2268D36943F40063D361226834
:102FA000D36923F48063D3612268D369296943EA32
:102FB0000123D361BDE7022038BD10B4036A0124A8
:102FC0008C4023EA04030362036A8A401A430262C4
:102FD00010BC704710B504460C290DD8DFE801F08D
:102FE000070C0C0C1B0C0C0C210C0C0C27000268A1
:102FF000D36843F00203D36001222068FFF7DDFFAE
:103000002268114B9A4218D02268136843F00103DA
:103010001360002010BD0268D36843F00403D3603E
:10302000EAE70268D36843F00803D360E4E7026884
:10303000D36843F01003D360DEE71A465B6C43F4B9
:1030400000435364E0E700BF002C014010B5044684
:1030500001220068FFF7B1FF2268084B9A4206D0B0
:103060002268136843F001031360002010BD1A4664
:103070005B6C43F400435364F2E700BF002C014053
:1030800090F83C30012B22D030B4012280F83C2053
:10309000022380F83D300468636823F070036360A6
:1030A000046863680D682B4363600468A36823F0B9
:1030B0008003A3600468A36849680B43A36080F899
:1030C0003D20002380F83C30184630BC7047022079
:1030D00070477047704700002DE9F047824602684C
:1030E000136923F44053C1680B4313610168CA6834
:1030F000836800690343DAF81400034322F4B052F2
:1031000022F00C021343CB60DAF80020536923F459
:103110004073DAF818100B435361DAF800405C4B47
:103120009C4259D0FFF79AFB00EB800000EB800037
:10313000DAF804309B00B0FBF3F3564FA7FB0323F0
:103140005B091D01FFF78AFB00EB800000EB8000AC
:10315000DAF804309B00B0FBF3F6FFF77FFB00EBDF
:10316000800000EB8000DAF804309B00B0FBF3F342
:10317000A7FB03235B094FF0640909FB13631B01E1
:103180003233A7FB03235B0903F0F006FFF766FB6E
:1031900000EB800000EB8000DAF804309B00B0FB0D
:1031A000F3F8FFF75BFB00EB800000EB8000DAF840
:1031B00004309B00B0FBF3F3A7FB03235B0909FB7F
:1031C00013831B013233A7FB0323C3F3431333439E
:1031D0002B44A360BDE8F087FFF750FB00EB8000B5
:1031E00000EB8000DAF804309B00B0FBF3F3294ECB
:1031F000A6FB03235B091C01FFF740FB00EB8000EB
:1032000000EB8000DAF804309B00B0FBF3F5FFF729
:1032100035FB00EB800000EB8000DAF804309B0007
:10322000B0FBF3F3A6FB03235B094FF0640808FB34
:1032300013531B013233A6FB03235B0903F0F00594
:10324000FFF71CFB00EB800000EB8000DAF8043095
:103250009B00B0FBF3F7FFF711FB00EB800000EBE6
:103260008000DAF804309B00B0FBF3F3A6FB0323E5
:103270005B0908FB13731B013233A6FB0323C3F363
:1032800043132B432344024A9360BDE8F08700BFF9
:10329000003801401F85EB512DE9F04107460E46ED
:1032A00015469846069C3A68136836EA03030CBF35
:1032B00001230023AB421ED1B4F1FF3FF4D02CB167
:1032C000FEF718F9A0EB08008442ECD23A68D36804
:1032D00023F4D073D3603A68536923F00103536138
:1032E000202387F8393087F83A30002387F83830C0
:1032F0000320BDE8F0810020BDE8F08158B310B58F
:10330000044690F839300BB3242384F8393022680E
:10331000D36823F40053D3602046FFF7DDFE226814
:10332000136923F4904313612268536923F02A033D
:1033300053612268D36843F40053D3600020E063F4
:10334000202384F8393084F83A3010BD80F83830C2
:1033500005F0B6F8D8E7012070472DE9F04383B0B7
:103360001E4690F83930DBB2202B04D002231846D9
:1033700003B0BDE8F08304460D469046002958D0BE
:10338000002A58D090F83830012B01D10223EEE703
:10339000012380F838300023C363212380F83930BB
:1033A000FEF7A8F80746A4F82480A4F826804FF07A
:1033B00000094FF0800810E000963B464A4641461F
:1033C0002046FFF769FF002837D122682B88C3F316
:1033D000080353602369C3B90235E38C9BB2B3B1D0
:1033E000E38C013B9BB2E384A368B3F5805FE3D039
:1033F00000963B464A4641462046FFF74DFFF0B94E
:1034000023682A785A600135E7E70135E5E7009639
:103410003B46002240212046FFF73EFF034608B10D
:103420000323A4E7202284F83920002284F83820DE
:103430009DE701239BE7012399E7032397E70323F4
:1034400095E7000008B54FF4A0730F4A13800F4AA8
:1034500013800F4A13800F4A138000230E4A137003
:103460000E4A13800E4A138001220E490A704FF64D
:10347000FF710D4801800D4801800D490A700D4A09
:10348000136000F0F9FF08BD0E0600200C060020B6
:1034900012060020100600201C0600201406002042
:1034A00016060020220600201E060020200600200E
:1034B00023060020180600202DE9F04F83B00546B2
:1034C0000E461746BDF830200092A3EB0108B8F174
:1034D000000FB8BFC8F10008A7EB0009B9F1000F51
:1034E000B8BFC9F10009C84504DD3A461F46134676
:1034F0000D460646BD4205DD32461E4613462A46A7
:103500003D461746A7EB050B1FFA8BFBA3EB060AFC
:10351000BAF1000FB8BFCAF1000A0FFA8BF404EB3E
:10352000D47464109E42B4BF01234FF0FF33019363
:10353000BD4206DD03B0BDE8F08F01352DB2AF42CC
:10354000F8DBC845009AC7BF2946304631462846B1
:1035500001F08CF8A4EB0A04A3B21CB2002CECDA44
:10356000019A164436B20BEB030424B2E5E708B522
:1035700001F013F808BD08B500F0E6FF08BD10B56E
:1035800082B0BDF81040009401F02EF802B010BDDA
:1035900000B583B0064BB3F90030064AB2F90020FB
:1035A00000900021084601F01FF803B05DF804FB0D
:1035B000100600201206002010B582B0BDF81040A1
:1035C000904206D08B4212D00094FFF775FF02B0F4
:1035D00010BD1A468B42B8BF0A4601328B42D4BF97
:1035E000D21A521A234612B200F0D7FFEFE7034671
:1035F0009042B8BF134601339042D4BF1A1A9A1AA8
:10360000234612B200F0A0FFE1E72DE9F041804629
:103610000E4614461F46BDF818502B4600F094FF86
:10362000791E31442B46224609B2404600F08CFFF9
:103630002B463A463146404600F0AFFF601E4044FC
:103640002B463A46314600B200F0A7FFBDE8F081B4
:103650002DE9F04F89B004911D460593BDF94870DE
:10366000BDF94C90BDF850600096994240F3A5809A
:103670000B46494500F3AB80A94232DA049B4B4527
:1036800035D093B21A46019385B25B1B1BB20293ED
:1036900005991FFA81FBBDF81080ABEB08031BB244
:1036A0001846BFB27E1B36B21FFA89F3A3EB080897
:1036B0000FFA88F8BF1A3AB20692A3EB0B031BB2BB
:1036C000039349451ABF0BF1FF3B0FFA8BFBCB4627
:1036D000049CA34552DB0027BA46CDF81C908146D6
:1036E0002AE004950593034610461A46C6E7904221
:1036F00005DC13468242B8BF0346024618B2BA42FE
:1037000004DCB842B8BF384600B217460130C21BCD
:10371000009B12B20499384600F016FF09B0BDE8CC
:10372000F08F0132121A009B12B2214600F00CFFFA
:10373000013424B2A34510DB9AFBF9F0284400B20F
:1037400097FBF8F22A4412B2029B9A443744904203
:10375000E7DD034610461A46E3E7DDF81C90069BBA
:103760009B46059AA71A03FB07F31F46B246049B24
:10377000E31A06FB03F64C450DDDCFE7049CEEE7AC
:103780000132121A009B12B2214600F0DDFE013414
:1037900024B24C45C2DC039B97FBF3F0019B184419
:1037A00000B296FBF8F22A4412B25F4456449042AB
:1037B000E6DD034610461A46E2E7059949457FF7DC
:1037C0005DAF049B04910593034610461A46059B82
:1037D000994507DA049BCDF8109099460346384680
:1037E0001F464EE7049B05990491CDF81490994625
:1037F000034610463A461F4640E700002DE9F04FC9
:1038000091B007900393BDF868B09DF86C300293B7
:10381000864B186830B3037AD31ADBB2446804EBE2
:10382000C302D0F8009034F833A093780A93D37889
:1038300092F905000F9092F90620029C012C40F3AA
:10384000978000B2089010B20C900B93002B00F000
:10385000E980002304939B461D4689B20D918A1886
:103860000E92C9E0724BB3F90030079CA34240F3BB
:10387000D980704BB3F900308B4240F3D38002986B
:1038800000EB400304EB4303012B00F1CB8001EB81
:10389000C003012B00F1C68002EB820206230693CF
:1038A0004FF0000A644B134409938BB21A460A93F3
:1038B00008331FFA83F90B92CDF814A082463DE03D
:1038C000039A21B2089800F0D1FE0DE0039B5B45FE
:1038D0000AD0BAF1010F21D0CDF800B0049A1346F6
:1038E00031B2029800F080FE4FEA58033D44ADB279
:1038F0003E44B6B20134A4B24C4515D0984613F0FC
:10390000010FE3D0BAF1010FDAD0039B0093049AC0
:10391000134629B2029800F067FEE5E75A4621B245
:10392000089800F0A3FEDFE7059B01335BB2059327
:10393000069B013B13F0FF03069373D0059B042BFA
:10394000DABF099AD35C0023BDF814201FFA8AF766
:10395000BDF81C1007FB021000B202900A9D0B9EDE
:1039600034460FFA8AF004900A4412B20892C5E76E
:1039700000200C90089068E715F0800F17D16D00BB
:10398000EDB20134E0B2013740452DDAFCB20BF163
:1039900001062644F6B20BEB040313F0070FEBD13C
:1039A0000AF1010319F80A501FFA83FAE4E7029BAF
:1039B000012B0FD0BDF90820089B1844059B0799DF
:1039C00000FB0310039B00931346069900B200F01E
:1039D0000BFED4E70F9B079A98182044039A099985
:1039E00000B200F043FECAE7B346049B0133DBB2EA
:1039F00004930B998B4215DA0A9A9046002AF4D068
:103A0000BDF8082005920C990B440D9903FB021395
:103A10001BB20693002738460E9B049A13441BB230
:103A20000993B3E711B0BDE8F08F00BF180600207E
:103A30001206002010060020F4A0000870B582B025
:103A40004F4B1B68002B4CD00A2800F08C800D28AF
:103A500045D01A7A904242DB597A88423FDC821A7A
:103A6000D2B25C6804EBC204A278002A2FD0E178BD
:103A700000292CD043490978B9B143490D7894F90C
:103A800005100A444149B1F9001005FB02124049F2
:103A9000B1F900108A4208DB00213C4A11803D4AFE
:103AA000997A138801FB053515803B4B1B88394AF1
:103AB000B2F90010354AB2F90050334A1278019237
:103AC000364A1288009202462846FFF797FE2F4A90
:103AD00020792D4B1B78118800FB0313138002B053
:103AE00070BD0A2834D00D28F9D0264B1B78ABB115
:103AF000254B1A78254BB3F9003002EB420103EB5A
:103B000041032349B1F900108B4207DB00211F4B11
:103B1000198020490B8803EBC2020A801E4B1B88C8
:103B20001C4AB2F90010194CB4F90060164D2A78FD
:103B300001921A4A1288009202463046FFF75EFE52
:103B40002B7803EB4303228802EB43032380C6E771
:103B5000104A0D4B1978138803EBC1031380002220
:103B60000A4B1A80BBE70021084A1180094A06491E
:103B700008789B7A118800FB03131380AFE700BF1E
:103B8000180600202306002022060020140600202C
:103B90001206002016060020200600201E06002027
:103BA000024B1880024B1980704700BF140600209A
:103BB00016060020012838BF0120014B18707047FD
:103BC00022060020024B1880024B1980704700BF6C
:103BD000200600201E06002008B500F003030E4A50
:103BE0001370032B0BD8DFE803F0020D020D0B4B13
:103BF0001A880B4B1A800B4B1A880B4B1A8000F05B
:103C000049FD08BD074B1A88054B1A80034B1A88DB
:103C1000054B1A80F3E700BF1C0600200E060020AB
:103C2000120600200C06002010060020024650B1AB
:103C3000094B1B6813B1084B1A60704707490B8882
:103C400006330B80F7E7044B1B68002BF3D00349C6
:103C50000B88063B0B80EEE71806002016060020B6
:103C600070B50646451E00243046FCF771FA8442C2
:103C700005D215F8010FFFF7E1FE0134F4E770BD3E
:103C80000FB4B0B582B000AF07F1180454F8045B6C
:103C90007C602146284604F013FE073020F0070020
:103CA000ADEB000D7C6022462946684604F062FDBB
:103CB0006846FFF7D5FF0837BD46BDE8B04004B001
:103CC0007047000008B5FCF7AFFB02460B46024800
:103CD000FFF7D6FF08BD00BFECA0000808B50146FD
:103CE0000148FFF7CDFF08BDF0A00008F0B583B094
:103CF000504B1B68002B4DD00A2900F08F800D29F6
:103D000046D01A7A914243DB5C7AA14240DC8A1A9F
:103D1000D2B25C6804EBC204A578002D30D0E27802
:103D2000002A2DD0444A1678078894F905202A44A1
:103D3000424DB5F9005006FB025285883D44AA4227
:103D40000EDB3E4A17809B7A3D4A158803FB0653DB
:103D50001BB2138033444288C0880244934217DC6C
:103D6000384B1B88364AB2F90050344AB2F9000089
:103D70000196354A128800920A462946FFF73EFD11
:103D80002E4A20792C4B1B78118800FB03131380DB
:103D900003B0F0BD0A2936D00D29F9D0264B1A7888
:103DA0000588264BB3F9004002EB420304EB4304C1
:103DB00083882B449C420DDB204B1D80204C2388A4
:103DC00003EBC2031BB2238013444488C088204401
:103DD0008342DDDC1B4B1B881948B0F90050174C9F
:103DE000B4F900000192184A128800920A46294646
:103DF000FFF704FD104B1B7803EB4303228802EB13
:103E000043032380C4E702880C4B1A800C4A0A4BF8
:103E10001978138803EBC1031380B9E70188074AB7
:103E20001180074A044908789B7A118800FB031324
:103E30001380ADE71806002022060020140600209B
:103E400016060020200600201E060020F8B50746B2
:103E50000E46B0F902200188094B1980094B1A80DF
:103E6000751E00243046FCF773F9844206D215F81B
:103E7000011F3846FFF73AFF0134F3E7F8BD00BFF2
:103E8000140600201606002030B587B004460D4603
:103E9000FDF72CFF049501230293A40244F0006473
:103EA00003940023019305A901A8FDF7D9FF48B9A0
:103EB000FDF730FF0598B0F1FF3F14BF002001204F
:103EC00007B030BDFDF726FF0020F9E70A44914214
:103ED0000DDA10B4800240F00064085D03F8010BB5
:103EE000013189B29142F8DB012010BC70470120FA
:103EF00070472DE9F04F89B01D4641EA0203C3F334
:103F00000903002B57D100EB912080B2C3B2059377
:103F1000994600EB92220792934252DA00230693CD
:103F20004C4601210598FFF7AFFF0490002844D0CC
:103F3000FDF7DCFEA30243F00063009304354FF06D
:103F4000000E069C039515F8032C4FF0000B4FEA6A
:103F5000026A15F8042C16041AEB06004BEB0B0151
:103F600015F8022C002312184B4115F8010C4FEAEA
:103F7000002812EB080243EB0B03009901EB8E01C2
:103F80000220FDF707FF88B90134A4B2A646043524
:103F9000FF2CD7DDFDF7BEFE059B0133DBB2059399
:103FA0001C46039D079A9342BBDB06E0FDF7B2FE79
:103FB000CDF810B001E000230493049809B0BDE8E7
:103FC000F08F01230493F8E708B501217F20FFF764
:103FD0005BFF08BD03460144B1F5807F10DC8842D9
:103FE00010DA9B0003F1006303F5FE331B6842F80F
:103FF000043B013080B203468142F2DC012070476D
:1040000000207047012070472DE9F0410144B1F5CF
:10401000807F03DD00273846BDE8F0811546FFF7B5
:10402000D3FF07460028F6D0FDF760FE043D0021CF
:104030000C4688460226890055F8042F434601F1B4
:10404000006101F5FE313046FDF7A4FE38B90134B8
:10405000A4B22146FF2CEEDDFDF75CFEDBE7FDF7A9
:1040600059FE0027D7E7000030B583B0154804F0AB
:10407000ABFC154804F0A8FC144804F0A5FC0A2089
:1040800005F02AF803F032FE114C022500950023BA
:104090001A468021204600F049FB80212046FEF789
:1040A0003DF8B0FA80F0400904F018FE00950023B6
:1040B00001228021204600F039FB02F0B1FF03B05D
:1040C00030BD00BFF4A5000800A6000808A600083F
:1040D000000C014008B501F0A7F808BD10B4124B60
:1040E0001968124A1160124CE168124A11600022EC
:1040F0001A604FF0333323600F4B4FF400525A6174
:104100004FF480425A614FF47F0222614FF4004124
:1041100059611961020482F47F02104320615961E0
:10412000196110BC704700BF000401402406002044
:10413000000C0140280600200010014038B5084C52
:104140004FF4007525610A2000F0BFFA65610A206E
:1041500000F0BBFA2561642000F0B7FA38BD00BF5B
:10416000000C0140F0B54FEA102C5FFA80FE584B6E
:104170001C68584A1460584CE568584A156000227B
:104180001A604FF033332360554B4FF400525A619D
:104190004FF480455D61534A22614FF400425A61F9
:1041A0001A611D614FEA0C4585F47F0545EA10252B
:1041B00025615A611A614FEA0E4686F47F0646EA87
:1041C0000E0626615A611A610139C1F38F17F44551
:1041D00029D04FF6FF7E4FF0100C3F48404A4FF475
:1041E0000043013FBFB277454ED06446056153613D
:1041F00013610661536113610561536113610661C7
:104200005361136105615361136106615361136169
:10421000056153611361066153611361013C14F040
:10422000FF04E3D1DDE74FF6FF7410251A464FF483
:104230000043013FBFB2A74215D028465361136126
:1042400053611361536113615361136153611361CE
:10425000536113615361136153611361013810F0AD
:10426000FF00EBD1E5E701F03F014B1EDBB2F1B1FE
:104270001B494FF400424A610A614A610A61013BED
:10428000DBB2FF2BF7D112E001F03F014B1EDBB296
:1042900069B1114812494FF4004205614A610A614F
:1042A00006614A610A61013BDBB2FF2BF5D10B4B82
:1042B0001A68094BDA604FF088321A604FF40052E6
:1042C00003F580631A61034B1A68014B1A60F0BD55
:1042D0000004014024060020000C014028060020B4
:1042E000001001402C00D30010B50C46FFF7F6FE7D
:1042F0000D4B4FF480421A61210481F47F01214368
:104300000A4A11614FF4004159611961084909686D
:10431000D1604FF0883111604FF400521A61054BA3
:104320001A68054B1A6010BD00100140000C0140D6
:1043300028060020240600200004014038B50D4660
:104340001446110AFFF7D0FFE1B22846FFF7CCFF71
:1043500038BD08B540F23F1205210420FFF7EEFFFB
:1043600040F23F1209210820FFF7E8FF08BD0000D6
:1043700010B50C46C0B2FFF7B1FE124B4FF48042AD
:104380001A6121120A0482F47F020A430E490A616B
:104390004FF400425A611A6184F0FF0044EA00447D
:1043A0000C615A611A61094A1268CA604FF088327A
:1043B0000A604FF400521A61054B1A68054B1A60E7
:1043C00010BD00BF00100140000C01402806002075
:1043D000240600200004014038B50C46FFF77EFE9D
:1043E000194B4FF480421A61210E0A0482F47F02B5
:1043F0000A43164802614FF400425A611A61250CC3
:10440000290481F47F01294301615A611A61250A57
:10441000290481F47F01294301615A611A61210451
:1044200081F47F01214301615A611A61084A1268CF
:10443000C2604FF0883202604FF400521A61054B9F
:104440001A68054B1A6038BD00100140000C01408D
:1044500028060020240600200004014038B50D463F
:104460001C4642EA00412A20FFF7B6FF44EA054114
:104470002B20FFF7B1FF38BD10B52E4B1B682E4C1B
:10448000E3604FF0883323602C4B4FF400521A61E5
:104490002B4A11682B4A11604FF480421A614FF485
:1044A00000421A614022A3F500631A61FFF746FE3D
:1044B0004FF03333236000210120FFF715FF322036
:1044C00000F003F900212820FFF70EFF2321C02070
:1044D000FFF70AFF1021C120FFF706FF42F62B313C
:1044E000C520FFF745FFC021C720FFF7FDFE88214B
:1044F0003620FFF7F9FE55213A20FFF7F5FE1B2184
:10450000B120FFF735FF0721B720FFF7EDFE0021AF
:104510001120FFF7E9FE782000F0D7F800212920CC
:10452000FFF7E2FE40F23F131A4600210846FFF76C
:1045300095FF10BD28060020000C0140001001402E
:10454000240600200004014070B5141E20DD1D4625
:104550008BB2EF2B1CD8B0F5A07F19DA83B2A6B2CC
:104560005A1E324412B2002A12DB002811DBB2F5C7
:10457000A07F04DBC0F5A07424B240F23F120B46CA
:10458000FFF76CFF21462846FFF7ECFDFFF7E1FE41
:1045900070BD9C1924B20020E9E770B5141E1EDD21
:1045A0001D4683B2B3F5A07F19D2EF2917DC8AB27A
:1045B000A6B2531E33441BB2002B10DB00290FDBC5
:1045C000EF2B03DDC1F1F00424B2EF230246FFF725
:1045D00045FF21462846FFF7C5FDFFF7BAFE70BD2F
:1045E000941924B20021EBE7F8B5151E33DD1C4603
:1045F000002B30DDB0F5A07F2DDAEF292BDC86B261
:104600001FFA85FE721E724412B2002A23DB8FB29B
:104610001FFA83FC7B1E63441BB2002B1BDB0028AC
:104620001ADB00291DDBB2F5A07F04DBC0F5A07505
:104630002DB240F23F12EF2B03DDC1F1F00424B2A2
:10464000EF23FFF70BFF04FB05F1BDF81800FFF7A0
:1046500089FDFFF77EFEF8BD06EB0E052DB20020AA
:10466000DFE707EB0C0424B20021DCE783B2B3F5EB
:10467000A07F02D28BB2EF2B00D9704710B5144641
:10468000EF2340F23F12FFF7E9FE21462C20FFF70F
:104690006FFE10BD08B5032815D8DFE800F0101232
:1046A000020E48213620FFF71FFE40F23F131A4644
:1046B00000210846FFF7D2FE08BD2821F2E7882135
:1046C000F0E7E821EEE70021ECE708B5FCF718FF7A
:1046D00008BD08B5FCF70EFF08BD000070B50F4E11
:1046E000FCF708FF0446B56800BF00BFFCF702FFF7
:1046F000A042F5D10A4B1B680A4AA2FB0312C5EB84
:1047000092150135084AA2FB03239B0CB5FBF3F578
:104710004FF47A7303FB005070BD00BF10E000E05F
:10472000E0000020D34D621083DE1B4300B585B04E
:10473000009101920293069B03936946FDF7F4FBF7
:1047400005B05DF804FB20B10268136823F0010393
:104750001360704720B10268136843F001031360CF
:1047600070470000D0B110B402460D4B1B680D48D5
:10477000A0FB03039B0C01FB03F10B4BA3FB010309
:10478000DB0B01339BB210685C1E8462126801EB84
:104790005301B1FBF3F39BB2D36210BC704700BF6F
:1047A000E000002083DE1B430180008008B1036825
:1047B0005962704720B103683433890843F82120D7
:1047C000704718B108B5FFF7F5FF08BD7047000046
:1047D0000022014B1A7070470000002038B50546D2
:1047E000074C02212046FFF7E1FF4FF47A7101FBED
:1047F00005F12046FFF7B6FF2046FFF7ABFF38BDB7
:104800001C3B0020094B1B7873B9094B1B7823B95B
:10481000084B1B88B3F5C06F06DB064B1A88064BA6
:104820001A800122014B1A70704700BF42360020E7
:104830002E360020363600203E36002008B5054BC7
:104840005B69034200D108BD024B5861FFF7DAFFF4
:10485000F9E700BF0004014008B50022024B1A70BE
:104860000248FFF770FF08BD000000201C3B00203D
:1048700008B5FFF7F1FF08BD08B5FFF72FFF054AA0
:104880001368C31A04490B6010600122034B1A70AD
:1048900008BD00BF30360020383600202E360020FC
:1048A0002DE9F04106460122724B1A700023724A2C
:1048B0001370724A1360724A1370724A1380FFF7C2
:1048C0000DFF714B1860714B08225A6110225A611A
:1048D00020225A6140225A6180225A610920FDF744
:1048E00093F90A20FDF790F91720FDF78DF9002EB6
:1048F00030DB002E5AD100245E4E654F614D337877
:10490000EBB13A68136813F0020FFBD02B88D16C1F
:10491000604A22F81310604A9168604A22F8131026
:1049200001339BB22B80B3F5406F3AD0544B1B78C8
:10493000002BE4D00134A4B2B4F5C06FDFD109205C
:10494000FDF76EF90A20FDF76BF91720FDF768F9FE
:10495000BDE8F0810024474E4A4D4D4F3378002B7F
:10496000EDD02B883A68D16C4A4A22F813104A4A93
:1049700091684A4A22F8131001339BB22B80B3F599
:10498000406F09D03E4B1B78002BE7D00134A4B216
:10499000B4F5C06FE2D1D2E700232B80FFF76CFFA4
:1049A000F0E700232B80FFF767FFBFE747F6FE73B2
:1049B0009E4205D000242F4F324DDFF8D4803AE0DC
:1049C0002C4B1B78002BBAD0354B1F784FF49676C2
:1049D00006FB07F6002E11DD002213462D4C2F4852
:1049E000511C34F8115024F8125030F8111020F8EE
:1049F000121001339BB21A46B342F1DB244B1B6801
:104A0000DA6C244B23F81620234B9A68234B23F8A7
:104A1000162007EB8707C7EB0717BF00194B1F804E
:104A20008DE700232B80FFF727FF19E03346013B7A
:104A30001BB2002BFBD13B78002B80D02B88D8F801
:104A40000020D16C134A22F81310134A9168134ABC
:104A500022F8131001339BB22B80B3F5406FE0D0E6
:104A6000074B1B78002BE1D00134A4B2B4F5C06F22
:104A7000DCD164E7000000202E360020383600200C
:104A80004236002036360020303600200004014037
:104A9000683A00202C1E0020000C01402C0600204B
:104AA000303A002008B540B9074BB3F90000FFF7D2
:104AB000F7FE0648FFF747FE08BD054BB3F90000B7
:104AC000FFF78CFEF0E700BF343600201C3B0020CF
:104AD0003C36002070B504460E461D4D0146284662
:104AE00003F072FF3046FBF79FFC02460B46194865
:104AF00003F06AFF184B33F81410184BB3F91A304F
:104B0000C91A284603F060FF154E36F81410C1F399
:104B10004031284603F058FF36F81410C1F38031B5
:104B2000284603F051FF36F91410C90F284603F048
:104B30004BFF0C4B1B7833B10B4B1B88A34202D1AC
:104B40000A4803F041FF0A2004F0C6FA70BD00BF16
:104B5000ACA70008B0A700082C1E00201C3C0020B9
:104B60002C060020423600203E360020B4A7000864
:104B7000F8B57D4C2068FCF789F87C49FCF792F980
:104B8000064621687A4803F01FFF3046FBF74CFCCD
:104B900002460B46774803F017FF774C6278774B55
:104BA00053F82210764803F00FFF76493046FCF7A1
:104BB000C5F8FBF739FC02460B46734803F004FFC7
:104BC000724B1A78724B53F82210724803F0FCFEB5
:104BD000714D2A78714B53F82210714803F0F4FE9E
:104BE0002B7804EB8304606AFBF71EFC02460B463D
:104BF0006C4803F0E9FE6C4803F0E6FE6B4B1B7853
:104C0000002B00F099806A4803F002FF01F070FC6D
:104C1000684803F0D9FE684B1B7F002B00F09080A2
:104C2000664803F0F5FE644CA06AFBF7FDFB024604
:104C30000B46634803F0C8FEE06AFBF7F5FB02464B
:104C40000B46604803F0C0FE606AFBF7EDFB0246CE
:104C50000B465D4803F0B8FEE16AA06AFBF764FF0B
:104C6000FBF7E2FB02460B46584803F0ADFE206A14
:104C7000FBF7DAFB02460B46554803F0A5FE237806
:104C8000002B61D06069FBF7CFFB02460B46514811
:104C900003F09AFEA069FBF7C7FB02460B464E489D
:104CA00003F092FE00224D4BD4E90201FBF73AFDDE
:104CB00002460B464A4803F087FE2069FBF7B4FB27
:104CC00002460B46474803F07FFE0A2004F004FA30
:104CD000454803F09DFE454B1C88B4F5406FB8BFB6
:104CE00000203EDA451CADB2FBF7D4FF3146FCF79D
:104CF00025F801462046FFF7EDFE0134A4B2284610
:104D0000B4F5406FEEDB394B1B888BB10024374F75
:104D1000281980B2FBF7BEFF3146FCF70FF80146B9
:104D20002046FFF7D7FE0134A4B23B889C42EFDB5C
:104D30000A2004F0D1F9F8BD2D4803F069FE65E7BB
:104D40002C4803F065FE6EE72B4803F061FE2B480C
:104D500003F05EFE2A4803F05BFE2A4803F058FE8B
:104D6000B3E70025CFE700BF3836002000004045FC
:104D70000CA600082CA600081C3C00205C000020AB
:104D800044A600080000C84158A60008663A002062
:104D90000800002074A60008643A00202C000020BF
:104DA00084A6000894A60008B0A600084236002099
:104DB000BCA60008C4A60008003A0020D0A600083F
:104DC000E0A60008ECA60008F8A6000804A7000862
:104DD00010A700081CA700082CA7000800408F405F
:104DE0003CA7000848A7000888A70008363600201E
:104DF000C0A60008D8A6000858A7000864A70008A5
:104E000070A700087CA700082DE9F84F01EB000906
:104E1000484535DA0646904607461A4DDFF874B025
:104E2000DFF874A0304602F045FC0120FFF73AFE9F
:104E30004FF4C870FFF749FC00231C4635F81320D7
:104E4000144401339BB2B3F5406FF7DB8BFB0432A4
:104E5000E317C3EB622328F816305AF827100A48E4
:104E600003F0B2FD2146094803F0AEFD38F81610F4
:104E7000074803F0A9FD0136F6B237464E45D1DBAF
:104E8000BDE8F88F2C1E0020C0A70008CCA70008A2
:104E9000D8A70008ABAAAA2A2C0000202DE9F047C9
:104EA0008AB002AC0DF11E012346002223F8022B2A
:104EB0008B42FBD11423ADF820302823ADF82230EB
:104EC0004FF48C73ADF82430A023ADF8263031496F
:104ED00008A802F0D9F802F001F968B12E4B1B784E
:104EE0006BB12E4908A802F0CFF802F0F7F801F0F4
:104EF000F3FA0AB0BDE8F08701F0EEFAF9E72849C5
:104F000008A802F0C1F8002002F0E0FC022002F044
:104F1000A7FC244E00253570284602F057FE02AA51
:104F20000C212846FFF770FF012333706420FFF740
:104F3000CCFB1D4D08A92B4634F8022B23F8022F79
:104F40008C42F9D103F0A6FE184803F061FD184C1D
:104F5000184E04F1300ADFF8649054F8047B35F9F8
:104F6000028F56F8040FFBF75FFACDE900014246C5
:104F70003946484603F028FD5445EED10E4908A8AD
:104F800002F082F802F0AAF801F0A6FA0022054B1E
:104F90001A70AEE7E4A70008663A002054A800089B
:104FA000B0A800082C3600206E3C0020D8A80008CD
:104FB0002C0000203C3C00200CA90008F0A80008B0
:104FC00000F5006080B2094B1880094B1B784BB983
:104FD000084B1B689A6A32B1596A40F6FF729142D7
:104FE00008BF986270475862704700BF02000020F7
:104FF0002C360020683A002000B587B00F4B18709F
:105000000F4B19700F4B0093002301930123029360
:105010000D48FCF787FA0D4B1B8880B29842C7BF3A
:1050200040F6FF72039203930023049369460648F7
:10503000FCF7A2FB07B05DF804FB00BF413600207F
:105040004036002000028000683A00200200002064
:105050002DE9F04182B007460D462820FCF7E0FD1F
:105060001220FCF7DDFD0026324B1E70DFF8DC80DD
:1050700002240094234632464FF400514046FFF785
:1050800055FB0094234632464FF480414046FFF7DB
:105090004DFB0094234632464FF400414046FFF753
:1050A00045FB012D0CD04DB1A542234A18BF324615
:1050B000032F0AD8DFE807F03728062B1F4AF7E747
:1050C0001F4AF5E74FF4804123E01E4B1D7183F822
:1050D0002070B7B985B1012D4FF001010CBF002040
:1050E0000846FFF789FF1220FCF78EFD2820FCF709
:1050F0008BFD02B0BDE8F08100210120FFF77CFFAD
:10510000F1E70021104809E04FF4005101E04FF4AD
:1051100000410C4B1D7183F820700C480223009352
:10512000FFF704FBE2E7074B1D71002283F8202004
:10513000D0E700BF00000020000031100000111077
:10514000000021101C3C002000080140000C014020
:1051500003689A6AEAB940F6FF725A620368154A10
:1051600012889A62144B1B7893B1144B1B78ABB91D
:10517000134B1B7823B9134B1B88B3F5C06F0DDBA2
:10518000104B1A88104B1A8001220C4B1A7005E044
:105190007047596A40F6FF72914200D07047054A45
:1051A00012885A62036800229A62084B1B78002B0F
:1051B000DBD1F3E702000020413600204236002018
:1051C0002E360020363600203E36002040360020A5
:1051D00010B5044600F0CAF92046FFF763FC02F060
:1051E0003FF800F0E1F901F02BFE0D4B1B7883B97D
:1051F0000C4B1B7883B90B4C237883B102F030F849
:105200000028F9D001F068F900F05EF801F018FE0E
:10521000F2E702F04BFDEBE700F01CFEEBE710BD00
:10522000423600202C36002010B502F01BFE02F0A2
:1052300017F81D4BDB780BB3012B23D001F04CF991
:1052400000F094F90020FFF72DFC00F0ADF90122E9
:10525000164B1A7000F038F801F0F2FD02F026FD4E
:10526000124C237893B101F0FBFF0028F9D001F034
:1052700033F900F029F801F0E3FDF2E70120FFF730
:10528000A7FF05E00020FFF7A3FF01E000F0E2FD2B
:10529000074A1368013B136003B110BD03F00AFD18
:1052A0003C22034B1A60F8E71C3C00202C360020FF
:1052B00004000020024B18700122024B1A70704744
:1052C00014000020F93900200122014B1A707047A8
:1052D000F939002070B51B4E31781B4C20781B4DDE
:1052E000B5F87630184401300023D222013100B2E3
:1052F000FEF73DF931782078B5F878301844013060
:105300000023D222013100B2FEF731F93178B5F82D
:105310007A3019440131207800234FF4967209B293
:105320000130FEF728F93178B5F87C3019440131A5
:10533000207800234FF4967209B20130FEF71BF972
:1053400070BD00BFAC000020280000201C3C0020E5
:1053500038B5364B93F86D50354B1978354B187876
:10536000324CB4F86E30184401304CF218624FF6EB
:105370001F03002D18BF1346D222013100B2FEF7E1
:10538000F6F894F86D502A4B19782A4B1878B4F82F
:105390007030184401304CF218624FF61F03012D93
:1053A00018BF1346D222013100B2FEF7E0F894F89C
:1053B0006D501F4B1978B4F87230194401311D4BF0
:1053C00018784CF218624FF61F03022D18BF1346CF
:1053D0004FF4967209B20130FEF7CDF894F86D5093
:1053E000134B1978B4F8743019440131114B187803
:1053F0004CF218624FF61F03032D18BF13464FF4EB
:10540000967209B20130FEF7B6F8B4F86E30A4F81F
:105410007630B4F87030A4F87830B4F87230A4F86C
:105420007A30B4F87430A4F87C3038BD1C3C0020CD
:10543000AC0000202800002008B52A4B93F86C30FF
:10544000DBB1294B1B780A2B0BD1264B93F86D301F
:10545000032B0DD00133234A82F86D30FFF778FF1C
:1054600008BD0A22204B1A700122204B1A7008BD79
:1054700000221C4B83F86D20F0E71B4A11784B1C6F
:10548000DBB213700A2B13D0174B1B780B2B16D0E3
:10549000154B1B780C2B19D0134B1B780D2B1BD0E5
:1054A000114B1B780D2B1BDD00220F4B1A7008BD12
:1054B0000C4B1B7C002BEFD102311170E4E7094B40
:1054C0005B7C002BECD10C22074B1A70054B9B7CAC
:1054D00033B90D22044B1A70024BDB7C002BE3D056
:1054E00008BD00BF1C3C002014000020F93900203A
:1054F00008B5FFF7EEF800F5FA60014B186008BD3B
:10550000FC39002000B583B00122094B1A70094B09
:105510001978094B187800230093D0234FF4957223
:1055200001310130FEF72BF803B05DF804FB00BF3A
:10553000F8390020AC0000202800002008B5034BFB
:1055400083F82100FFF7DEFF08BD00BF1C3C0020F0
:1055500008B5054A92F82130B3FA83F35B0982F863
:105560002130FFF7CFFF08BD1C3C002008B50B4BD6
:105570005B78072B02DC094BDB7873B10122084B07
:105580001A7000214FF61F00FEF71CFB14218C201F
:10559000FEF706FB0348FEF763FB08BD1C3C00203A
:1055A0009C3700207CA90008084B1B7803B9704782
:1055B00010B582B0002400940823422214218C20CC
:1055C000FDF7DDFF014B1C7002B010BD9C370020C1
:1055D0002DE9F04F8DB0784BB3F91A200B92B3F947
:1055E00008200A92B3F90A200792B3F90C20089216
:1055F000B3F90E2009921A7C02925A7C03929A7C8B
:105600000492DA7C05926D4A1588B3F906301D4480
:10561000B5F5406FA8BFA5F54065694B1E782E44CF
:10562000DFF8B4A1674C0127DFF8B081DFF8B09153
:10563000DFF8B0B11EE1644A92F800E05E4A927F62
:10564000BEFBF2FE2AE1604B19785B4B9B7FB1FBFE
:10565000F3F129E15D4B1878384400B200920B4613
:1056600002467146FDF7A8FF51E14FF0000E5FE1E1
:10567000002168E1554B1878384400B200920B467F
:1056800002467146FDF798FF8FE14FF0000E9DE155
:105690000021A6E14D4B1878384400B200920B4629
:1056A00002467146FDF788FFCEE199F8003098B2C6
:1056B000474A12880244D23292B20692BAF90010D6
:1056C0004FF0D20C0CFB01F18BFB012EC917C1EB83
:1056D0002E2E0699A1EB0E0E0FFA8EFEBAF90210CD
:1056E0000CFB01FC8BFB0C214FEAEC7CCCEB212C5E
:1056F000069AA2EB0C0109B2364A1278002A4FF63C
:10570000807218BF002203F1D00CE645C8BF00F13B
:10571000D10E01339E45B8BF00F1010E8C45B8BFD4
:1057200000F1D0018B42C8BF411C8E4509DB274BDD
:105730001878384400B2009273460246FDF73CFFE9
:1057400087E1224B1878384400B200920B4602469B
:105750007146FDF731FF7CE11B4A92F800E0164AE2
:10576000927FBEFBF2FE81E1174A1078124A927FC7
:10577000B0FBF2F081E1154B1878384400B24FF4D9
:10578000FC6300930B4602467146FDF715FFA8E146
:105790004FF0000EB7E10022D2E10C4B18783844EC
:1057A00000B21F2300930B4602467146FDF704FF2B
:1057B000F9E14FF0000E09E21C3C002036360020D3
:1057C000303A00207136002015000020280000200B
:1057D00044360020F8390020A23700204C36002043
:1057E000AC0000201F85EB510022237823F020031A
:1057F00001F020010B43237099F8003098B207990B
:105800004118D23189B2A1EB0E0E0FFA8EFE891A21
:1058100009B203F1D0029645C8BF00F1D10E0133A1
:105820009E45B8BF00F1010E8A42B8BF00F1D00119
:105830008B42C8BF411C8E45C0F2D681B94B187847
:10584000384400B24FF47843009373460246FDF7A4
:10585000B3FE029B002B40F0D481B34B1B781D4458
:1058600001371E440AF1020A013440F22B139F4211
:1058700000F02982B6F5406FA8BF0026B5F5406F4D
:10588000A8BF002598F80330002B40D0234694F998
:105890000020002AFFF6CFAE4FF0000E93F9013042
:1058A000002BFFF6D0AE002199F8003098B29F4A45
:1058B000D2880244D23292B2A2EB0E0E0FFA8EFEC2
:1058C000511A09B29A4A1278002A14BF00224FF4E2
:1058D000FC5203F1D00CE645C8BF00F1D10E0133F4
:1058E0009E45B8BF00F1010E8C45B8BF00F1D00154
:1058F0008B42C8BF411C8E45FFF6ACAE894B187871
:10590000384400B2009273460246FDF755FE98F8FF
:105910000230002B49D02246237813F0400F3FF489
:10592000A4AE844B93F800E0834B5B7FBEFBF3FE99
:10593000537813F0400F3FF49BAE7E4B19787E4BAB
:105940005B7FB1FBF3F199F8003098B2774A928807
:105950000244D23292B2A2EB0E0E0FFA8EFE511A10
:1059600009B2734A1278002A14BF00227C2203F184
:10597000D00CE645C8BF00F1D10E01339E45B8BF3B
:1059800000F1010E8C45B8BF00F1D0018B42C8BFB9
:10599000411C8E45FFF66EAE624B1878384400B25B
:1059A000009273460246FDF707FE98F80130002B7F
:1059B0004AD02246237813F0200F3FF466AE5D4BA9
:1059C00093F800E05C4B1B7FBEFBF3FE537813F0B3
:1059D000200F3FF45DAE574B1978574B1B7FB1FB3F
:1059E000F3F199F8003098B2504A52880244D2320A
:1059F00092B2A2EB0E0E0FFA8EFE511A09B24C4A69
:105A00001278002A14BF00224FF4604203F1D00C38
:105A1000E645C8BF00F1D10E01339E45B8BF00F185
:105A2000010E8C45B8BF00F1D0018B42C8BF411CAC
:105A30008E45FFF62FAE3B4B1878384400B20092EB
:105A400073460246FDF7B8FD98F80030002B7FF44E
:105A50002CAE059B002B44D0384B33F8153043F364
:105A60000723002BFFF678AE4FF0000E334A32F9D1
:105A70001620002AFFF678AE0020227802F07F027E
:105A800023F07F031343237099F800309AB20999E9
:105A90005118D23189B2A1EB0E0E0FFA8EFE091AFF
:105AA00009B203F1D0008645C8BF02F1D10E01331F
:105AB0009E45B8BF02F1010E8842B8BF02F1D00185
:105AC0008B42C8BF511C8E45FFF655AE154B18785A
:105AD000384400B24FF4FC63009373460246FDF76E
